:1000000009C019C035C017C016C015C014C013C030
:1000100012C011C011241FBECFE9CDBF10E0A0E671
:10002000B0E0ECE2F1E002C005900D92AE36B1070F
:10003000D9F746D079C0E4CFF89449E250E0DC012A
:100040002D91211599F039E0C498042E00000A94EE
:10005000E9F720FDC49A20FFC49826953A95A9F7A0
:10006000C49A042E00000A94E9F7EACF7894089520
:10007000F8944CE650E08AE290E0A0E6B0E0B39954
:100080001CC0A417D1F000000000006828E0082E72
:1000900000000A94E9F73695B39930682A95B9F7C4
:1000A0003D93082E000000000A94E1F70A94000036
:1000B0000A9419F0B39BE3CFFACF1C927894189569
:1000C000CF93DF9300D0CDB7DD2781E187BBC49A02
:1000D00087E089831A82CE010196AEDFE12CF12CF4
:1000E00080E1C82E87E2D82E8FEFE81AF80AC70100
:1000F000B60106D0892BC1F780E690E09DDFF4CFF2
:10010000AA1BBB1B51E107C0AA1FBB1FA617B7073D
:1001100010F0A61BB70B881F991F5A95A9F7809559
:0C0120009095BC01CD010895F894FFCF2C
:0E012C00546573743031323334350A0D0000DF
:00000001FF
