:1000000009C019C035C017C016C015C014C013C030
:1000100012C011C011241FBECFE9CDBF10E0A0E671
:10002000B0E0E6EEF0E002C005900D92A837B1070F
:10003000D9F749D056C0E4CF48E250E0DC01F8944B
:100040002D91211599F039E0C498042E00000A94EE
:10005000E9F720FDC49A20FFC49826953A95A9F7A0
:10006000C49A042E00000A94E9F7EACF7894089520
:1000700089E290E0A0E6B0E0F8942F933F93B39923
:1000800017C0006828E0082E00000A94E9F73695AA
:10009000B39930682A95B9F73D93082E00000A9469
:1000A000E9F70A9400000A9419F0B399FBCFE7CF5F
:1000B0001C923F912F917894189580E28BBF88E035
:1000C00085BB7894089580E187BBC49AF6DF07FF6B
:1000D000FECF8DE690E0B0DF80E690E0ADDF00E09F
:0600E000F6CFF894FFCFFB
:1000E6005465737420303132330A0D000052656353
:0800F600656976653A200000FF
:00000001FF
