:1000000009C019C035C017C016C015C014C013C030
:1000100012C011C011241FBECFE9CDBF10E0A0E671
:10002000B0E0E0E3F1E002C005900D92AE36B1071A
:10003000D9F748D07BC0E4CF48E250E0DC01F89427
:100040002D91211599F039E0C498042E00000A94EE
:10005000E9F720FDC49A20FFC49826953A95A9F7A0
:10006000C49A042E00000A94E9F7EACF7894089520
:100070002CE030E08AE290E0A0E6B0E0F8942F9324
:100080003F932A0FB39919C0006828E0082E00009A
:100090000A94E9F73695B39930682A95B9F73D93F4
:1000A000A21759F0082E00000A94E9F70A940000FC
:1000B0000A9419F0B399FBCFE5CF1C923F912F9191
:1000C00078941895CF93DF9300D0CDB7DD2780E1EA
:1000D00087BBC49A87E089831A82CE010196ACDF80
:1000E000E12CF12C80E1C82E87E2D82E8FEFE81AA0
:1000F000F80AC701B60106D0892BC1F780E690E067
:100100009BDFF4CFAA1BBB1B51E107C0AA1FBB1F7B
:10011000A617B70710F0A61BB70B881F991F5A9593
:10012000A9F780959095BC01CD010895F894FFCF73
:0E013000546573743031323334350A0D0000DB
:00000001FF
