:1000000009C019C035C017C016C015C014C013C030
:1000100012C011C011241FBECFE9CDBF10E0A0E671
:10002000B0E0ECE0F1E002C005900D92AE36B10711
:10003000D9F743D069C0E4CF48E250E0DC01F8943E
:100040002D91211599F039E0C498042E00000A94EE
:10005000E9F720FDC49A20FFC49826953A95A9F7A0
:10006000C49A042E00000A94E9F7EACF7894089520
:1000700089E290E0A0E6B0E0F8942F933F93B39923
:1000800017C0006828E0082E00000A94E9F73695AA
:10009000B39930682A95B9F73D93082E00000A9469
:1000A000E9F70A9400000A9419F0B399FBCFE7CF5F
:1000B0001C923F912F917894189580E187BBC49A48
:1000C000C0E0D0E080E1E82E87E2F82E2196CE0154
:1000D000B70106D0892BD1F780E690E0ADDFF6CFEF
:1000E000AA1BBB1B51E107C0AA1FBB1FA617B7075E
:1000F00010F0A61BB70B881F991F5A95A9F780957A
:0C0100009095BC01CD010895F894FFCF4C
:0E010C005465737420303132330A0D00000048
:00000001FF
