:1000000009C019C035C017C016C015C014C013C030
:1000100012C011C011241FBECFE9CDBF10E0A0E671
:10002000B0E0E2E0F1E002C005900D92A837B10720
:10003000D9F74CD064C0E4CFF89449E250E0DC0139
:100040002D91211599F039E0C498042E00000A94EE
:10005000E9F720FDC49A20FFC49826953A95A9F7A0
:10006000C49A042E00000A94E9F7EACF7894089520
:10007000F8944CE650E08AE290E0A0E6B0E0B39954
:100080001CC0A417D1F000000000006828E0082E72
:1000900000000A94E9F73695B39930682A95B9F7C4
:1000A0003D93082E000000000A94E1F70A94000036
:1000B0000A9419F0B39BE3CFFACF1C927894189569
:1000C00080E28BBF88E085BB78940895CF93DF935F
:1000D00000D0CDB7DD2781E187BBC49AF1DF87E08F
:1000E00089831A82CE010196A7DF07FFFECF8DE636
:1000F00090E0A2DF80E690E09FDF00E0F6CFF8948A
:02010000FFCF2F
:10010200546573743031323334350A0D00526563ED
:08011200656976653A200000E2
:00000001FF
